:020000040800F2
:10000000305C0024A5030008D7560008E947000823
:10001000D5560008AF080008E1690008000000009C
:10002000000000000000000000000000E5020008E1
:100030007D13000800000000410300080964000867
:10004000C3030008C3030008C3030008C303000878
:10005000C3030008C3030008C3030008C303000868
:10006000C3030008C3030008C3030008C303000858
:10007000C3030008C3030008C3030008C303000848
:10008000C3030008C3030008C303000811140008D9
:100090007D140008C3030008C3030008C30300085D
:1000A000C3030008C3030008C3030008C303000818
:1000B00095650008C3030008C3030008C3030008D4
:1000C000C3030008C3030008C3030008C3030008F8
:1000D000C3030008C3030008C3030008C3030008E8
:1000E000C3030008C303000800000000C3030008A6
:1000F000C3030008C3030008C3030008C3030008C8
:10010000C3030008C3030008C3030008C3030008B7
:10011000C3030008C3030008C3030008C3030008A7
:10012000C3030008C3030008C3030008C303000897
:10013000C3030008C3030008C3030008C303000887
:1001400000000000000000000000000000000000AF
:10015000C3030008C3030008C3030008C303000867
:10016000C3030008C3030008C3030008C303000857
:10017000C3030008C3030008C30300080000000015
:10018000C3030008C3030008C3030008C303000837
:10019000C3030008C3030008C3030008C303000827
:1001A000C3030008C3030008C303000800000000E5
:1001B000C3030008C3030008C3030008C303000807
:1001C000C3030008C3030008000000000000000093
:1001D0000000000000000000C30300080000000051
:1001E000000000000000000000000000000000000F
:1001F0000000000000000000C3030008C303000863
:10020000C3030008C303000800000000C303000884
:10021000C3030008C3030008C3030008C3030008A6
:10022000C303000800000000C30300080000000032
:10023000C3030008C303000800000000C303000854
:10024000C3030008C3030008C3030008C303000876
:10025000C3030008C3030008C3030008C303000866
:10026000C3030008C3030008C3030008C303000856
:10027000C3030008C3030008C30300080000000014
:10028000C3030008C3030008C3030008C303000836
:1002900000000000C3030008C303000800000000C2
:1002A00000000000C3030008C3030008C3030008E4
:1002B000C3030008C3030008C3030008C303000806
:1002C000C3030008C3030008C3030008DFF810D00D
:1002D00000F00AF9004800478DA10008AFF3008044
:1002E000305C00242C4B19680868B0E8F04F80F3AC
:1002F0000988BFF36F8F4FF0000080F311887047BB
:100300000000000008480068006880F308884FF08B
:10031000000080F3148862B661B6BFF34F8FBFF35D
:100320006F8F00DF00BF00BF08ED00E0DFF80C00BA
:10033000016841F470010160704700BF88ED00E082
:10034000EFF30980BFF36F8F134B1A681EF0100F85
:1003500008BF20ED108A20E9F04F106009B44FF07B
:10036000500080F31188BFF34F8FBFF36F8F0AF0F7
:10037000EBFF4FF0000080F3118809BC1968086892
:10038000B0E8F04F1EF0100F08BFB0EC108A80F3F9
:100390000988BFF36F8F704738000024EFF30580A2
:1003A00070470000074880470748804707480047D4
:1003B000FEE7FEE7FEE7FEE7FEE7FEE7FEE7FEE715
:1003C000FEE7FEE795130008BD640008CD020008B3
:1003D0002DE9F05F0546002092469B46884606467A
:1003E000814640241BE0284641464746224600F00D
:1003F00053F853465A46C01A914110D31146184635
:10040000224600F016F82D1A67EB01084F462246E7
:100410000120002100F00DF817EB00094E41201ECD
:10042000A4F10104DFDC484631462A464346BDE8D4
:10043000F09F202A04DB203A00FA02F100207047E6
:100440009140C2F1200320FA03F319439040704712
:1004500040EA01039B0703D009E008C9121F08C046
:10046000042AFAD203E011F8013B00F8013B521EC6
:10047000F9D27047D2B201E000F8012B491EFBD23D
:1004800070470022F6E710B513460A46044619469F
:10049000FFF7F0FF204610BD202A04DB203A21FAA6
:1004A00002F00021704721FA02F3D040C2F120028D
:1004B000914008431946704770B521F0004303434B
:1004C0000CD0C1F30A550024D5EB040564EB0403FA
:1004D000D617AD1AB34102DB0020014670BD2018CB
:1004E00041EB025170BD0000064C074D06E0E0688C
:1004F00040F0010394E8070098471034AC42F6D36B
:10050000FFF7E8FE10C8000830C8000870B58C1866
:1005100010F8015B15F0070301D110F8013B2A1117
:1005200006D110F8012B03E010F8016B01F8016B04
:100530005B1EF9D12B0705D40023521E0DD401F800
:10054000013BFAE710F8013BCB1A921C03E013F8C9
:10055000015B01F8015B521EF9D5A142D8D30020FE
:1005600070BD000001220248114602F004B80000EC
:100570000008025800220248012101F0FCBF0000DF
:100580000008025801220248082101F0F4BF0000CF
:100590000008025800220248082101F0ECBF0000C8
:1005A0000008025800487047A04E002470B5FFF7BD
:1005B000E1FF922000F060F978490622122000F055
:1005C0003DF9FFF7CFFF754E744C1C3E744DD6EDD0
:1005D000030AF07821780028607822D0000200B267
:1005E000084301EE100AD5ED0C1A95ED080AB8EE95
:1005F000C11A21EE201A51EE001AC5ED001AE0785A
:10060000A178D5ED0D1A000200B2084301EE100AE0
:10061000B8EEC11A21EE201A51EE001AC5ED011AEA
:100620001DE0000200B2084301EE100A95ED080A31
:10063000B8EEC11A21EE201A21EE001A85ED001A3B
:10064000E078A178000200B2084301EE100AB8EE8B
:10065000C11A21EE201A21EE001A85ED011A6079E7
:100660002179000200B20843708101EE100AB8EE51
:10067000C11A61EE200A20EE800A85ED020AFFF71A
:1006800089FF46490822002000F0D8F8FFF77AFFDA
:1006900020780F285BD1F078A1780028E0782ED060
:1006A000000200B2084300EE900A95ED091A96ED9B
:1006B000040AF8EEE00A10EE801A85ED031A60795C
:1006C000217995ED0A1A000200B2084300EE900A63
:1006D000F8EEE00A10EE801A85ED041AE079A179AF
:1006E000000200B20843708100EE900A95ED0B1AEB
:1006F000F8EEE00A10EE801A85ED051A27E00002F8
:1007000000B2084300EE900A96ED040AF8EEE00A03
:1007100060EE800AC5ED030A60792179000200B21B
:10072000084300EE900AF8EEE00A60EE800AC5ED9C
:10073000040AE079A179000200B20843708100EE5A
:10074000900AF8EEE00A20EE800A85ED050AFFF730
:1007500011FFA22000F090F810490222222000F0A0
:100760006DF8FFF7FFFE20786178C00040EA511075
:100770007081B0F5806F02DBA0F500607081B6F982
:100780000A00B4EE001A00EE100AF3EE070AB8EE03
:10079000C00A40EE010AC5ED070A70BDD40000246E
:1007A000A04E002470B51A4A0D46184C0021106066
:1007B000A17007F059FEA1780843A07007F0E8FE89
:1007C000A17840EA0100A0701DB1124800F070F855
:1007D0001AE01048DFED173A9FED174AC0ED083ACE
:1007E0009FED0D0ADFED0D0A9FED0D1ADFED0D1ADD
:1007F0009FED0D2ADFED0D2A9FED0D3A80ED064AA3
:1008000000F1240181EC070AA07870BDB800002433
:1008100000010024A04E0024F0A032BAB9F3AFBA10
:10082000B1EFBBBA0B6F993E2A98933D00000000D0
:100830007A841D410F187F3F0000204270B540F0C0
:10084000800014460D4600F017F806E0552000F031
:1008500013F8641E05F8010BE4B2002CF6D170BD4C
:1008600010B540F080000C4600F006F8552000F06E
:1008700003F8207010BD000001B582B04FF47A700B
:100880000123009001AA044802A9006803F038FA85
:100890009DF804000EBD00000001002410B50C46B8
:1008A000FFF7EAFF2046BDE81040FFF7E5BFFEE78F
:1008B0002DE9F04F044600202DED048B89B0009007
:1008C000019000F0C7FCFE4D0DF10809FD4E0DF141
:1008D000140A4FF07C5B85ED050ADFEDFB9A00BF43
:1008E00000F0B8FCD5ED050AF84930EE600A10EECC
:1008F000100A884214DDDFEDF60A9FEDF61A9FED2F
:10090000F60ADFEDF61A9FEDF62AC4ED090A84ED2A
:100910000A1A84ED0B0AC4ED0F1A84ED062A87E14A
:100920009FEDF00A00F04CFC9FEDEF0A002784EDEC
:100930000F0A84ED090A84ED0A0A84ED0B0AF9E036
:10094000FFF718FE9220FFF797FF06226946122054
:10095000FFF774FFFFF706FE9DF801009DF80010F9
:10096000D5ED030A000200B2084300EE100AB8EE0B
:10097000C00A20EE200A84ED000A9DF803009DF8CD
:100980000210D5ED031A000200B2084300EE900AEF
:1009900020EE000AF8EEE00A20EEA11A84ED011A1A
:1009A0009DF805009DF8041001EE010A000200B256
:1009B000084300EE900AF8EEE00A60EEA10AC4EDEA
:1009C000020A00EEA00A07F01EFAB0EE408A94ED8B
:1009D0000F0A30EE080A84ED0F0AFFF7DBFD08224C
:1009E00069460020FFF72AFFFFF7CCFD9DF80000C5
:1009F0000F2840D19DF803009DF80210D5ED040AA0
:100A0000000200B2084300EE100AB8EEC00A20EE61
:100A1000200A84ED030A94ED091A31EE000A84EDF0
:100A2000090A9DF805009DF80410000200B2084371
:100A300000EE100AB8EEC00A20EE200A84ED040A87
:100A400094ED0A1A31EE000A84ED0A0A9DF80700B7
:100A50009DF80610000200B2084300EE100AB8EE3E
:100A6000C00A20EE200A84ED050AD4ED0B0A30EE10
:100A7000800A84ED0B0A002F7ED0B4EEC98AF1EE15
:100A800010FA01DDB0EE489AB4EEE88AF1EE10FA01
:100A900001D2F0EE488A00204946524604EB800C11
:100AA00001EB80039CED030AD3ED000AB4EEE00AEB
:100AB000F1EE10FA01DD83ED000A02EB8003D3EDC5
:100AC000000AB4EEE00AF1EE10FA01D283ED000A5A
:100AD000401CC0B20328E1D379EE680A5FF0000041
:100AE0004A465346C5ED060A02EB800103EB800C33
:100AF00091ED001A9CED000A06EB8008411C31EED6
:100B0000400AC8B2032888ED000AEDD310EE900A1F
:100B1000584513DC7548316881420FDC71688142A9
:100B20000CDCB168814209DCB0EE690A00F048FBD8
:100B30007F1CBFB2E8888742FFF402AFE9885FF00C
:100B40000000D4ED0F0A00EE101A2F46B8EE400A4E
:100B500080EE801A84ED0F1A00EE101A04EB80026A
:100B6000401CB8EE400AD2ED090AC0B2032880EE5C
:100B7000801A82ED091A00E064E0EDD3FFF7FAFC79
:100B8000A220FFF779FE022269462220FFF756FED7
:100B9000FFF7E8FC9DF800109DF80100C90041EA4C
:100BA0005010B0F5806F01DBA0F5006000EE100A78
:100BB000B4EE001AF3EE070AB8EEC00A40EE010ADE
:100BC000C4ED060AB888401CB880B86958453FF79C
:100BD00087AE94ED0F0ADFED460A30EE600A08F0AA
:100BE000D1F910EE100A5845F1DC404831688142D5
:100BF000EDDC71688142EADCB1688142E7DC94EDAA
:100C0000090A08F0BFF910EE100A3A4FB842DEDCCC
:100C100094ED0A0A08F0B6F910EE100AB842D6DCD4
:100C200094ED0B0A08F0AEF910EE100AB842CEDCD3
:100C300094ED0F0ADFED300A002680EE801A84ED75
:100C4000081AA3E05FF00000C846B0EE489AF0EE44
:100C5000488A524604EB800302EB800C93ED030AB2
:100C600008EB8003411C83ED000AC8B203288CED19
:100C7000000AEFD330E700BFFFF77CFC9220FFF7BC
:100C8000FBFD062269461220FFF7D8FDFFF76AFC3C
:100C90009DF801009DF8001095ED032A000200B2B6
:100CA000084301EE100A94ED080ADFED141AB8EEBD
:100CB000C11ADFED130A21EE021A21EE001A21E01B
:100CC000B8000024944E00246F12033A0000204123
:100CD000F0A032BAB9F3AFBAB1EFBBBA7A841D4112
:100CE000000020420AD7A33B000000009A99193E59
:100CF000CDCC1C410AD7233CC3F51C41CDCC4C3F85
:100D0000CDCC4C3E84ED001A94ED0C2A22EE212A23
:100D100001EE202A84ED0C2A9DF803009DF80210B4
:100D200095ED032A000200B2084301EE100AB8EE66
:100D3000C11A21EE021A21EE001A84ED011AD4ED37
:100D40000D2A62EEA12A41EE202AC4ED0D2A9DF85B
:100D500005009DF80410000200B2084301EE100ADD
:100D6000B8EEC11A21EE021A21EE000A84ED020A41
:100D700094ED0E1A21EE211A00EE201AB0EE690A47
:100D800084ED0E1A00F01CFA761CB6B22889864251
:100D9000FFF472AF09B0BDEC048BBDE8F08F00002A
:100DA00070B5304805F080FE2F480022062109F07A
:100DB000E5F82D4800220821383009F0DFF82948ED
:100DC0000022012198380AF0F1FA294C9FED271AE8
:100DD000F5EE000A84ED001AB2EE060A04F10800EE
:100DE00000F074FCDFED230A22460021C4ED010A65
:100DF0009FED210AA2F1D80004F00EFDA4F14801F4
:100E0000A1F1480005F0B6F85FF00005A4F53874CC
:100E10001A48B4F8A820B4F8AC1008F08DF80120F6
:100E200009F02FFB6D1C0A2DF2DB0025B4F87020B1
:100E3000B4F87410114808F07FF8012009F021FB84
:100E40006D1C0A2DF2DB0025B4F81C21B4F8241126
:100E50000A4808F071F8012009F013FB6D1C0A2DF7
:100E6000F2DB70BD1C540024D85200240000E14382
:100E700048550024000000000000B442B4030024E0
:100E80002DED028B03F024FD464DE86003E00120C8
:100E900009F0F7FAE86890F864000028F7D0FFF747
:100EA0007FFF414E96ED110A04F022FA9FED3F8A32
:100EB0000127A6F5DA743C49A1F5DA7007F04CFE7B
:100EC00007F01EFC94ED480A85ED040A94F8AC0185
:100ED000012838D00028EED1B4F8AC103448B0EE78
:100EE000482AF0EE481AB0EE481AF0EE480AB0EE82
:100EF000480A09F0E9F9384609F0C3FAB4F8741061
:100F00002B48B0EE482AF0EE481AB0EE481AF0EE40
:100F1000480AB0EE480A09F0D7F9384609F0B1FAA4
:100F2000B4F82411B0EE482A2148F0EE481AB0EE89
:100F3000481AF0EE480AB0EE480A09F027FA384697
:100F400009F09FFAB7E796ED0C0AB4F8AC10184810
:100F5000B1EE402AF0EE481AB0EE481AF0EE480A18
:100F6000B0EE480A09F0B0F9384609F08AFA96ED71
:100F70000B0AB4F874100E48B1EE402AF0EE481A8D
:100F8000B0EE481AF0EE480AB0EE480A09F09CF9B3
:100F9000384609F076FA94ED480AB4F82411B1EE17
:100FA000402AC1E70C0200241C5400240000000069
:100FB000B403002470B52B4805F076FD2A480022C2
:100FC000062108F0DBFF284800220821383008F00D
:100FD000D5FF254800220121E0300AF0E7F9214C35
:100FE0009FED221A9C34F5EE000A84ED001AB2EE51
:100FF000060A04F1080000F069FBDFED1D0A224635
:101000000021C4ED010A9FED1B0AA2F1480004F083
:1010100003FC154C00251848228FA18F07F08CFF88
:10102000012009F02EFA6D1C0A2DF4DB0025228820
:10103000A188114807F080FF012009F022FA6D1CF9
:101040000A2DF4DB5FF00005B4F8E020B4F8E810F6
:10105000094807F071FF012009F013FA6D1C0A2DF1
:10106000F2DB70BD84550024685200240000E14387
:10107000000000000000B442140300242DED028B98
:1010800003F026FC404D686003E0012009F0F9F907
:10109000686890F864000028F7D0FFF78BFF3B4E9C
:1010A00096ED110A04F03CF9394C01279FED398A7D
:1010B0003649374807F090FE07F08EFD94ED390A67
:1010C00085ED020A94F8AC01012836D00028EFD152
:1010D000A18F3148B0EE482AF0EE481AB0EE481A17
:1010E000F0EE480AB0EE480A09F0EEF8384609F08A
:1010F000C8F9A1882848B0EE482AF0EE481AB0EEA8
:10110000481AF0EE480AB0EE480A09F0DDF8384611
:1011100009F0B7F9B4F8E810B0EE482A1E48F0EE2E
:10112000481AB0EE481AF0EE480AB0EE480A09F044
:101130002DF9384609F0A5F9BAE7A18F164896EDC2
:101140000C2AF0EE481AB0EE481AF0EE480AB0EE5B
:10115000480A09F0B9F8384609F093F9A1880E4811
:1011600096ED0B2AF0EE481AB0EE481AF0EE480A57
:10117000B0EE480A09F0A8F8384609F082F9B4F848
:10118000E81094ED392AC9E7E002002484550024D0
:10119000685200240000000014030024064908B52A
:1011A0000648496800910269914202D2C168491C0F
:1011B000C1600099016108BD001000E058010024E1
:1011C0000A4841680A4AD2ED000A4268B8EE601A3D
:1011D000521A60EE011A01EE102AB8EE411AB4EE6E
:1011E000E11AF1EE10FAF0D370470000001000E0B1
:1011F00058010024054A0449926850434A684B68E4
:101200009B1A8342FBD37047001000E05801002472
:1012100000B50E492DED028B81B049680C4A009152
:101220000168D2ED000A009A0260511A00EE101A0D
:10123000F8EE600AB8EE400A80EE208AFFF7AEFFB3
:1012400001B0B0EE480ABDEC028B00BD001000E01A
:101250005801002410B500F043F80C48DFED0C1ADB
:1012600090ED000A8188C08800EE901AB8EE400A1E
:1012700001EE100AB8EE602ADFED060AB8EE411A58
:1012800002EE210A01EE200A10BD000088010024B0
:101290006F12833ABD3786350D49002370B50D4A6C
:1012A0000C6850430C4A44F080740C605360116821
:1012B0004FF47A74074DB0FBF4F4B0FBF5F541F050
:1012C000010606491660CB6081E8310070BD000060
:1012D000FCED00E040420F00001000E05801002447
:1012E00024482DE9F84340680090FFF757FF224D4E
:1012F0000024621E00982146EB68E3FB02012346AE
:1013000006460F46C5E90E01D5F800804246FFF7B4
:101310005FF8C5E90601434602468C463046394629
:10132000A2FB03670CFB037302FB0433801B61EB1E
:101330000301064605F130080F460023C5E9080100
:10134000C8F80020D5F804904A46FFF741F880B26B
:10135000A8F80400002300FB09F2B01A67EB0401AF
:10136000C5E90A01AA68FFF733F8A8F80600BDE846
:10137000F8830000001000E05801002470470000CE
:101380000248016800208863704700002805002497
:1013900072B6FEE7054805490839026842F00202C4
:1013A000026008688004FCD5704700000C480258B1
:1013B00010B58AB00024022001210194CDE9041463
:1013C000CDE90240114801A9069400F0DBFA08B10A
:1013D000FFF7DEFF02220D4800231146009400F0C3
:1013E00010FB08B1FFF7D4FF08480022012100F0EC
:1013F00051FA08B1FFF7CCFF044800F081FF002844
:1014000001D0FFF7C5FF0AB010BD0000140300248F
:10141000014800F0E3BB00001403002410B58AB0BB
:101420000024022001210194CDE90404CDE9021039
:10143000114801A9069400F0A5FA08B1FFF7A8FF2A
:1014400002220D4800231146009400F0DAFA08B198
:10145000FFF79EFF08480022102100F01BFA08B198
:10146000FFF796FF044800F04BFF002801D0FFF77C
:101470008FFF0AB010BD0000B4030024014800F043
:10148000ADBB0000B4030024F0B503684FF6FC7157
:101490006D4C426BD3F884508D4345EA8205C3F806
:1014A0008450036853F8845F068F25F47F0545EA6E
:1014B00006451D60836B654D9F180268D2F8883021
:1014C0008B4343EA8703C2F88830026852F8883FAA
:1014D000868F23F4FE0343EA06431360066856F83A
:1014E000A03FC26B8B4307EB420243EA82033360A7
:1014F000076857F8A03FB0F8406023F4FE0343EAC2
:1015000006433B60D0E9103603FB06220368D3F89C
:10151000B0608E4346EA8206C3F8B0600368B0F854
:101520004860D3F8B07027F4FE0747EA0646C3F8D0
:10153000B060D0E91267036806FB0722D3F8AC60FD
:101540008E4346EA8206C3F8AC60D0E914670368AC
:1015500006FB0722D3F8F0608E4346EA8206C3F802
:10156000F0600368B0F85860D3F8F07027F47C1787
:1015700047EA0646C3F8F0600368876D53F8C06F0A
:1015800002EB47028E4346EA820119600168B0F817
:101590005C20D1F8C03023F47C1343EA0242C1F846
:1015A000C020016890F86020D1F8C03023F07C534F
:1015B00043EA0262C1F8C020416B04EB8101C166BD
:1015C000826B01EB82020267C36B02EBC3024267CC
:1015D000D0E91034634302EB83028267D0E912340E
:1015E000634302EB8302C267D0E91434634302EB26
:1015F0008302C0F88020836D02EBC303C0F88430FF
:10160000C46D826E544303EB8403C0F88830046ECB
:10161000544303EB8402C0F89020AA420AD9D0F8C0
:101620009C20032142F02002C0F89C2080F89810F2
:101630000120F0BD002200E004C1D0F890308B42C0
:10164000FAD80020F0BD000000AC0040FCD3004000
:10165000F0B58E680C69D1E9005744EA0604DFB1A1
:1016600045F080452C43866ED1E906C54F695E433F
:1016700091F8203045EA0C05B1F80CC0D0F884E0B0
:10168000002047EA0363104F1D430EEB860345EA33
:101690000C45E3E8024511E044EA8544E3E7141809
:1016A000155CA67894F803C094F801E0360445EA86
:1016B0000C6446EA0E252C43001D10C3CC683C5D2B
:1016C0008442ECD8F0BD0000ECBD000810B5DFEDA1
:1016D0000C1A04462DED028BB0EE608AC0EE210A92
:1016E00021EE200A06F08FFBF0EE000A68EE200AD9
:1016F00020EE200A84ED000ABDEC028B10BD000034
:10170000C3F51C4110B5B6B0244924226846FEF743
:101710009FFE234800216A4608F03DFF214C242209
:101720001E492431206009A8FEF792FE1E480021C0
:1017300009AA08F030FF19492422606012A8483134
:10174000FEF786FE1948002112AA08F024FF13496B
:101750002422A0601BA86C31FEF77AFE14480021F9
:101760001BAA08F018FF0D492422E06024A890313C
:10177000FEF76EFE0F48002124AA08F00CFF07496F
:10178000242220612DA8B431FEF762FE0A48002110
:101790002DAA08F000FF606136B010BD14BD00082E
:1017A0000D4900080400002439620008595300085C
:1017B000D9560008015B0008EB470008A8B3A1B3A5
:1017C0009FED282AB5EEC00A80ED002AF1EE10FA4E
:1017D00081ED002A29D9F5EEC00AF1EE10FA24D3E2
:1017E000B5EEC01AF1EE10FA1FD9F5EEC01AF1EEFF
:1017F00010FA1AD921EE011A61EEA11A9FED1A3AD8
:10180000F6EE042A21EE032A61EE223A21EE831A33
:1018100061EEA21A32EE232A31EE211A72EE011A7B
:10182000F5EEC01AF1EE10FA01D80020704722EE52
:10183000013ADFED0E2AB0EE002A83EE211A60EEA7
:10184000820A20EE220A60EE810A21EE001A21EEC1
:10185000001A20EE800A80ED001A012081ED000AB6
:101860007047000000000000CECC4C3DDB0FC940AB
:1018700070B5044600F084FE0546601C02D00448A2
:101880000078044400F07CFE401BA042FAD370BDF7
:101890002400002410B590F89830012B09D0022BB9
:1018A00007D0D0F89C1041F00201C0F89C10012034
:1018B00010BD03689C6D0C4203D1DC6D44F0010443
:1018C00004E09C6D31EA04041FD00324DC658B0521
:1018D00005D50368D3F8E0401443C3F8E0404B0556
:1018E00005D50368D3F8E4401443C3F8E440006826
:1018F000084A01EA0203446D074A1C434465106824
:1019000040EA91701060002010BDDC6D44F00204CC
:10191000DCE70000FFFFCF3F14A8004070B504468D
:1019200090F89800022804D0D4F89C0040F00800F9
:101930000DE02068D0F8C03013F07C5F0BD0D0F8F9
:10194000C4309B020CD5D4F89C0040F40070C4F85D
:101950009C00012070BDD4F89C0040F02000F6E708
:10196000D0F8C400C0F3044520462B46FFF770FEB4
:1019700021680120A840C1F8D000C4F894000020DC
:1019800070BD704770B590F89820012A09D0022ADE
:1019900007D0D0F89C1041F00201C0F89C10012043
:1019A00070BD0B68CA6883B10B69072A43EA4273AA
:1019B00025D00C7A4A6942EA84724968006F00EBCC
:1019C000C100C0E90032002070BD072A0DD00C7A9A
:1019D000D6060D8A4B6943EA847246EA0543C06E17
:1019E00049681A4340F82120EDE70B8A4FF0605513
:1019F000D1E9062442EA034245EA0423EFE78A6973
:101A0000DBE730B590F89850039C012D07D0D0F853
:101A10009C1041F00401C0F89C10012030BD0D0164
:101A2000016845EA820040EA43002043C1F8800093
:101A3000002030BD70477047F0B590F898500024F2
:101A4000022D04D0D0F89C1041F0080130E040296C
:101A500005D0412930D0056D8D4220D94DE0056873
:101A6000D5F8A04014F4FE0F19D0D5F8A4406406B0
:101A70001AD0D5F8A440D5F8A460C4F30524F60123
:101A80000AD5D5F8A06016F0004F05D5D5F8A050BE
:101A9000641CC5F306452C40466F456C2BE0D0F81E
:101AA0009C1041F0200103E0D0F89C1041F48071BB
:101AB000C0F89C100120F0BD0568D5F8B04014F4C2
:101AC000FE0FECD0D5F8B4406406EDD0D5F8B440A4
:101AD000D5F8B460C4F30524F6010AD5D5F8B06092
:101AE00016F0004F05D5D5F8B050641CC5F3064577
:101AF0002C40866FC56C654302E0456DC66F4D4353
:101B000006EB85052E6816F0804656602E6836D0A6
:101B100026F060461660D5F800C000262D4F0CF068
:101B2000005CC2F808C0D5F800C00CF0004CC2F848
:101B300010C0B5F804C01FFA8CFCC2F81CC0D5F860
:101B400004C0CCF3034CC2F80CC0D5F804C00CF4AC
:101B5000801CC2F814C0D5F804C00CF4001CC2F8F4
:101B600018C0D5F804C0CCF3066CC2F820C0D5F874
:101B700004C008354FEADC7CC2F824C007E0C6F395
:101B80008A46C7E715F806C003F806C0761CD2F8E7
:101B90000CC017F80CC0B445F4D840290AD041292C
:101BA0000CD020294FF001020CD200688A40C0F806
:101BB00098200DE00068C0F8A84009E00068C0F86F
:101BC000B84005E0006801F01F018A40C0F89C2081
:101BD0000020F0BDECBD0008704700002DE9FF5F5C
:101BE000DFF80CB304460BF10401DBF800002568B4
:101BF0000F68AA468007D5F85090696DD5F85080D7
:101C00006E6D2A6DD5F854C02B6D00EA8770009078
:101C100009F470496F6D286D01EA09010191DAF844
:101C20005410DAF85490DAF8505008F00F0806EA29
:101C30000806029602F0F00203F071536FEA0906FB
:101C40001F4000F060700CEA020CCDF80CC0F205E9
:101C500001EA00090CD4E843C00509D400214FF47F
:101C60008073CAF85030CBF800102046FFF7B4FF5D
:101C7000700512D4E84340050FD4206800234FF4C8
:101C80008068D0F8DC20D0F8E410C0F85080CBF8A1
:101C900000301140204600F052FBDFF858A20098B7
:101CA00050B12268830F00EA0A001065CBF80030BB
:101CB00020460099FFF765FE019850B12268830F16
:101CC00000EA0A001065CBF800302046019900F0C8
:101CD00038FB029850B12268830F00EA0A001065B1
:101CE000CBF800302046029900F09EFA039850B1DC
:101CF0002268830F00EA0A001065CBF80030204606
:101D0000039900F0C7FA30050CD4E843000509D464
:101D1000236800204FF400621A65CBF800002046CB
:101D200000F010FBB00512D4E84380050FD4206802
:101D300000234FF40078D0F8D820D0F8E010C0F895
:101D40005080CBF800301140204600F0F9FA300303
:101D50000CD4E843000309D4236800204FF4002288
:101D60001A65CBF80000204600F05CFAF0030CD4B2
:101D7000E843C00309D4236800204FF480321A6579
:101D8000CBF80000204600F0D9FA70030CD4E843E9
:101D9000400309D4226800204FF480231365CBF858
:101DA0000000204600F0C9FAB0030FD4E8438003D6
:101DB0000CD4236800204FF400321A65CBF80000E1
:101DC000D4F89C0040F08000C4F89C00B9F1000FEA
:101DD0000BD022684FEA997309EA0A001065CBF824
:101DE000003049462046FFF726FE5FB12268BB0F50
:101DF00007EA0A001065CBF80030D4F89C0038439D
:101E0000C4F89C003C492068884268D160688146DB
:101E10008068800763D0D9F82060D9F82410D9F8F9
:101E20002080D9F82400D9F820C0D9F82470D9F836
:101E30002030D9F82450D9F8202003F4FC4306F0D0
:101E40000F0AD9F824601D40D9F824B008F03008F2
:101E50000CF4C07C02F4F02211EA0A0100EA08083E
:101E600007EA0C0706EA0206D9F820A004D0C9F850
:101E70002010204600F05EFAB8F1000005D061683D
:101E800008624146204600F057FA6FEA0B00400610
:101E90000ED46FEA0A0040060AD460684021C36B82
:101EA000C26B01622046190C02F03F0200F043FAB7
:101EB0002FB1606807623946204600F03AFA35B122
:101EC00060680562D4F89C002843C4F89C0036B1D1
:101ED00060680662D4F89C003043C4F89C00D4F8D3
:101EE0009C00002802D02046FFF7A4FDBDE8FF9F1C
:101EF00010A80040FFFFCF3F00A000402DE9F041B7
:101F000094B08D494C2204466846FEF7A1FA64B1AC
:101F10008A4D2068A84202D100F58070606094F874
:101F200098004FF0000820B108E0012014B0BDE88F
:101F3000F081204684F8998000F002F920688169D8
:101F400021F01001816100F01BFB0327064604E02D
:101F500000F016FB801B0A2811D820688069000752
:101F6000F6D42068816941F00101816100F008FB2D
:101F700006460DE000F004FB801B0A2808D9D4F8BF
:101F80009C0040F00100C4F89C0084F89870CCE7F5
:101F900020688069C007EDD02068816941F00201A6
:101FA0008161207C01282068816937D041F040019F
:101FB0008161607C01282068816932D021F48041F0
:101FC0008161A07C0128206881692DD041F4805175
:101FD00081612068A268816921F4407111438161A7
:101FE0002068816921F0A40181612068016921F0E4
:101FF00010010161E068012819D010B302281BD03C
:102000002068816941F0800181612068016941F0A7
:1020100010010161E06803280ED012E021F04001B8
:10202000C6E741F48041CBE721F48051D0E7206836
:10203000816941F0040103E02068816941F02001D9
:102040008161207E6FF0FF02D4E90773A68A110236
:10205000400602EB0727A0F10070384327685B1E9B
:10206000184301EB06463043F861A068B0F5407FA5
:1020700011D104F12800A68C6FF00F0C89C801EB78
:102080000641401E02EB0322104322680CEB0713AB
:1020900018430843D060206E30B12068626ED0F8DB
:1020A000C0101143C0F8C010D4E917126846D142DD
:1020B00009D02168A36E51F8C82F50F8233022F0C0
:1020C00007021A430A60216C49B12168626C51F819
:1020D000BC3F50F8226023F0070232430A60A16C33
:1020E00051B12168E36C51F8BC2F50F8233022F035
:1020F000700242EA03120A60216D51B12168626DDB
:1021000051F8BC3F50F8220023F4E06242EA00207C
:1021100008602068A84204D16068816821F003014A
:102120008160C4F894800121C4F89C8084F89810E0
:102130002046FFF7A9F9F9E6FCBD000800A0004021
:10214000F0B587B0044614216846FEF79AF9304A84
:102150000021276802252D4C0926DFF8B8C0106839
:102160000C3C2A4B674500F1010023D10128106087
:1021700007D1186840F480701860186800F4807007
:102180000590206840F008002060206800F00800FA
:10219000059003200090CDE90151CDE903161E48BA
:1021A000694600F0D1F800220521132000F0D8FA8A
:1021B000132026E0DFF864C0674524D101281060B1
:1021C00007D1186840F480701860186800F48070B7
:1021D0000590206840F002002060206800F00200B6
:1021E000059060200090CDE90151CDE903160C481F
:1021F000694600F0A9F800220521142000F0B0FA89
:10220000142000F09FFA07B0F0BD0000EC44025823
:102210002000002400A00040000C025800A4004050
:10222000000402587047000010B50446C8072AD0C1
:1022300015492068884226D114484021FEF721F92B
:10224000124B40212046A3F12802FFF7F5FB0F486F
:102250002838016879B1032908D0042913D1C2684C
:102260000A490B48BDE8104006F0CEBDC2680848D8
:1022700006493838F6E7C2680548BDE8104003490A
:10228000A83006F00BBE10BD00A000404C4F00244B
:10229000A052002410B50446C8062AD51549206866
:1022A000884226D114484021FEF7EBF8124B412119
:1022B0002046A3F12802FFF7BFFB0F48283801682A
:1022C00079B1032908D0042913D1C2680A490B48FF
:1022D000BDE8104006F098BDC26808480649383885
:1022E000F6E7C2680548BDE810400349743006F0BF
:1022F000D5BD10BD00A40040B44F002410530024ED
:1023000090F89810012907D0D0F89C1041F00401F2
:10231000C0F89C1001207047022180F8981000221C
:1023200001688B6923F001038B61C0F89C20104683
:1023300070477047704770477047704770477047E5
:1023400070477047704700002DE9F84F03247C4D1B
:1023500000234FF001094FF0B04B4FF00F0AE7E0B8
:1023600009FA03F632407BD00F7907F00307012FFB
:1023700001D0022F1AD187684FEA430ED1F80CC062
:1023800004FA0EF827EA08070CFA0EFC4CEA070CD0
:10239000C0F808C0476891F804C0B743CCF3001CEC
:1023A0000CFA03FC4CEA070CC0F804C00E79F643A3
:1023B000B60702D18E68012E0BD0C7684FEA4308DA
:1023C0008E6804FA08FC27EA0C0706FA08F63E4372
:1023D000C6600E7906F00306022E12D1DE080F69E0
:1023E0004FEA437C00EB8606B646366A4FEADC6C61
:1023F0000AFA0CF807FA0CF726EA08063743CEF873
:1024000020700F7906684FEA430807F0030704FAC3
:1024100008FC07FA08F726EA0C06374307604E68FF
:1024200016F4403F1CD0474E376847F0020737602C
:1024300036689F0706F00206009623F0030606F1B1
:10244000B046B6463F0FD6F80864DFF8FC800AFABB
:1024500007FC404526EA0C0603D14FF0000C3AE099
:1024600065E0DFF8E8C0604502D14FF0010C32E0D2
:10247000DFF8DCC0604502D14FF0020C2BE0DFF842
:10248000D4C0604502D14FF0030C24E0DFF8C8C08F
:10249000604502D14FF0040C1DE0DFF8C0C060457C
:1024A00002D14FF0050C16E0DFF8B4C0604502D150
:1024B0004FF0060C0FE0DFF8ACC0604502D14FF0E2
:1024C000070C08E0DFF8A0C0604502D14FF0090C0E
:1024D00001E04FF00A0C0CFA07FC4CEA060CCEF8AF
:1024E00008C44F68DBF80060FF0226EA020600D548
:1024F00016435F46CBF80060D1F804C0DBF80460F7
:102500005FEA8C2C26EA020600D516437E606E68D0
:102510004F6826EA0206BF0300D516436E602E6898
:102520004F6826EA0206FF0300D516432E605B1CA7
:102530000A6832FA03F67FF413AFBDE8F88F0000A3
:1025400080000058F4440258000002580004025869
:1025500000080258000C02580010025800140258DB
:1025600000180258001C0258002402580069084054
:1025700000D0012070470AB1816170470904FBE770
:1025800001488068704700002400002402488168E8
:10259000027811448160704724000024032010B5A4
:1025A00000F0FEF800F066FF0F4A10491468136847
:1025B000C4F3032203F00F038A5CC95C02F01F021C
:1025C00001F01F01D0400A4A20FA01F111600949C7
:1025D00008600F2000F010F808B1012010BD00F0D5
:1025E0009FF8002010BD00001844025848BE0008A3
:1025F000340000243000002410B5102804468AB0AE
:102600002DD2002201461C2000F0AAF81C2000F068
:1026100099F8184804601848016841F00101016008
:10262000006809A900F001000890684600F0C0FEAB
:102630000598B8B100F00CFF40001049002240F2AC
:10264000E733B0FBF1F10E484FF080440460C0E97D
:102650000332491EC0E9011201F05EFD28B10120DC
:102660000AB010BD00F0F4FEE7E7054801F086FD72
:10267000F6E7000028000024E844025840420F001A
:1026800074050024154BF0B5083B427813491A60D5
:102690000B680A1F23F001030B6043681360057B7E
:1026A000C67A827A437B2D07847B45EA0665C77B21
:1026B00090F809C0067A90F800E045EAC24040EA86
:1026C000834040EA444040EA074040EA0C2040EAA8
:1026D000460040EA0E000860F0BD0000A0ED00E0FA
:1026E000BFF35F8F044800210368034A23F480335B
:1026F000036070321160704724ED00E0074A40F03B
:102700000100064970321060086840F480300860AB
:10271000BFF34F8FBFF36F8F7047000024ED00E0D1
:10272000074882B0016841F00201016000680022A0
:102730000F2100F002000090901E02B000F010B8CF
:10274000F4440258002809DB410900F01F02890007
:10275000012001F1E0219040C1F800017047000024
:102760000E4BF0B41B680D46C3F30223C3F10706FA
:10277000042E00D90426191D072901D2002300E0E8
:10278000DB1E012404FA06F19C40491E2940641E08
:10279000994014402143F0BC04F099BA0CED00E0DC
:1027A000064900F0070210B54FF6FF040868044B15
:1027B000204040EA02201843086010BD0CED00E004
:1027C0000000FA05134970B50A68D243520705D5CF
:1027D000096801F00701814213D118E00A6822F06C
:1027E000070202430A60FFF7CBFE0A4D4FF47A76E8
:1027F0000446083D07E000BFFFF7C2FE001BB042E1
:1028000001D9012070BD2868C0438004F4D40020A1
:1028100070BD00000C4802582DE9FE4F0546DFF858
:1028200000A450F8081B0024FD4FC943019005F196
:10283000280026460AF1240A009008011DD4686E7B
:1028400050B1B0F5801F0CD0B0F5001F0ED0B0F520
:10285000401F1ED001240FE0386840F4003038607B
:1028600017E00198022103F0C7FB03E00098022162
:1028700003F052FC04000CD026462888C043C00553
:1028800023D4A86D05281ED2DFE800F00C11161B1A
:102890001B006A6EDAF8001021F440111143CAF8E7
:1028A0000010EAE7386840F40030386009E0019829
:1028B000002103F0A1FB03E00098002103F02CFCB1
:1028C0000446C4B100E0012426462888DFF850837E
:1028D000C04308F12C0840052FD4D5F8A400B0F56A
:1028E000C00F28D010DCB8B1B0F5001F19D0B0F57A
:1028F000800F0FD11AE0AA6DDAF8001021F007015D
:102900001143CAF80010E0E7B0F5000F13D0B0F59E
:10291000200F10D001240FE0386840F400303860F8
:1029200009E00198002103F067FB03E00098002113
:1029300003F0F2FB044694B126462888C043000504
:1029400030D4D5F8A800B0F1407F29D011DCC0B157
:10295000B0F1807F1AD0B0F1007F10D11BE0D5F824
:10296000A420D8F8001021F460011143C8F8001029
:10297000E3E7B0F1806F13D0B0F1A06F10D0012465
:102980000FE0386840F40030386009E00198002119
:1029900003F032FB03E00098002103F0BDFB044686
:1029A00094B126462868DFF878B2C0430BF1200BBB
:1029B00080011FD4E86CD8B110280FD0202812D085
:1029C000302815D0012414E0D5F8A820D8F800103C
:1029D00021F0E0611143C8F80010E3E7386840F4E3
:1029E0000030386004E00198022103F005FB044642
:1029F00074B126462888C043C0042BD4E86DB0F5D6
:102A0000005F20D00DDCA0B1B0F5805F0FD115E0E4
:102A1000EA6CDBF8001021F030011143CBF8001014
:102A2000E8E7B0F5405F13D0B0F5804F10D0012437
:102A30000FE0386840F40030386009E00198002168
:102A400003F0DAFA03E00098002103F065FB044686
:102A50008CB126462888C043800429D4286EB0F55E
:102A6000403F23D010DC08B3B0F5803F14D0B0F560
:102A7000003F0FD115E0EA6DDAF8001021F4E041D3
:102A80001143CAF80010E5E7B0F5802F0ED0B0F57D
:102A9000A02F0BD001240AE00198012103F0ACFA29
:102AA00003E00098012103F037FB044694B1264669
:102AB0002888C04340042AD4D5F8AC00B0F1405F68
:102AC00023D010DC08B3B0F1805F14D0B0F1005F08
:102AD0000FD115E02A6EDAF8001021F4E02111433D
:102AE000CAF80010E4E7B0F1804F0ED0B0F1A04F6B
:102AF0000BD001240AE00198012103F07DFA03E0E4
:102B00000098012103F008FB044674B1264628888A
:102B1000C04300041FD4E86ED8B1B0F1805F0ED07E
:102B2000B0F1005F10D0012414E0D5F8AC20D8F843
:102B3000001021F0E0411143C8F80010E7E73868C1
:102B400040F40030386004E00198012103F054FAA9
:102B5000044674B126462868C043C0011ED4A86C40
:102B6000D0B101280ED0022811D0032814D001249E
:102B700013E0EA6EDAF8001021F040511143CAF870
:102B80000010E8E7386840F40030386004E001984D
:102B9000022103F031FA04466CB126462868C0438E
:102BA000400255D41F48016841F480710160FFF76D
:102BB000E7FC81460EE0AA6CDBF8001021F003016F
:102BC0001143CBF80010E9E7FFF7DAFCA0EB0900AE
:102BD00064283BD813480068C005F5D5BCBBDFF8B6
:102BE0004090B5F8B01009F14409D9F8000001F49B
:102BF000407100F44070884211D0D9F80010D9F823
:102C0000002021F4407142F48032C9F80020D9F844
:102C1000002022F48032C9F80020C9F8001003E037
:102C20002C44025800480258D5F8B000B0F5807F17
:102C300019D1FFF7A5FC029011E000BFFFF7A0FC3F
:102C40000299411A41F28830814208D9032426466C
:102C50002878DFF81494C043C00721D03CE0D9F8AD
:102C600000008007EAD5D5F8B010C1F30120032891
:102C7000FE480DD0016821F47C510160B5F8B02008
:102C8000D9F80010C2F30B021143C9F80010DFE7B6
:102C9000F74A036802EA111223F47C511143ECE76E
:102CA000A86F182816D005DCA0B1082808D0102875
:102CB00004D10AE020280DD028280BD001240AE0F6
:102CC0000198012103F098F903E00098012103F035
:102CD00023FA044664B126462878C04380071ED4F0
:102CE000686F062819D2DFE800F0160C11161616C8
:102CF000AA6FD9F8001021F038011143C9F800106B
:102D0000EAE70198012103F077F903E00098012137
:102D100003F002FA04467CB100E00124264628783C
:102D2000C04340071FD4D5F89000062819D2DFE829
:102D300000F0160C111616166A6FD9F8001021F063
:102D400007011143C9F80010E9E70198012103F0D8
:102D500053F903E00098012103F0DEF90446A4B121
:102D600000E0012426462878C04380062BD4D5F8FD
:102D70008C00B0F1405F24D011DC10B3B0F1805F63
:102D800015D0B0F1005F10D116E0D5F89020D8F83A
:102D9000001021F007011143C8F80010E3E7B0F17B
:102DA000804F0ED0B0F1A04F0BD001240AE0019863
:102DB000002103F021F903E00098022103F0ACF9AF
:102DC000044694B126462878C04340062BD4D5F853
:102DD0009800B0F5406F24D011DC10B3B0F5806FCF
:102DE00015D0B0F5006F10D116E0D5F88C20D9F8C9
:102DF000001021F0E0411143C9F80010E3E7B0F5FD
:102E0000805F0ED0B0F5A05F0BD001240AE00198DE
:102E1000002103F0F1F803E00098022103F07CF9AF
:102E2000044694B126462878C04300062BD4D5F832
:102E30009C00B0F5C04F24D011DC10B3B0F5005F9A
:102E400015D0B0F5804F10D116E0D5F89820D8F8FD
:102E5000001021F4E0511143C8F80010E3E7B0F589
:102E6000004F0ED0B0F5204F0BD001240AE001989E
:102E7000002103F0C1F803E00098022103F04CF9AF
:102E8000044654B126462878C04300071ED4D5F81E
:102E90008000B0F5805F0AD00FE0D5F89C20D8F80C
:102EA000001021F460411143C8F80010EBE70098CE
:102EB000022103F031F900B10126D5F88020D9F8BC
:102EC000001021F440511143C9F800102878C04384
:102ED000C00613D4D5F89400B0F5807F05D10098D2
:102EE000022103F019F900B10126D5F89420D8F891
:102EF000001021F440711143C8F800102868C04345
:102F0000000316D4D5F8A00038B1B0F5803F09D041
:102F1000B0F5003F0BD001240AE00198002103F036
:102F20006BF803E00098022103F0F6F804468CB138
:102F300026462868C043400322D4D5F88400B0F563
:102F4000801F11D0B0F5001F13D0B0F5401F15D071
:102F5000012414E0D5F8A020D8F8001021F4403165
:102F60001143C8F80010E4E7386840F400303860D6
:102F700004E00098012103F0CFF804465CB1264636
:102F80002868C043C0031CD4286D70B1B0F5803FE1
:102F900010D0012414E0D5F88420D9F8001021F4D1
:102FA00040111143C9F80010EAE7386840F40030D6
:102FB000386004E00198022103F01EF80446DCB1F9
:102FC00026462868C043800005D40098022103F0FB
:102FD000A3F800B101262868C04380031BD4E86F22
:102FE000B8B1B0F5807F10D0B0F5007F11D0B0F54A
:102FF000407F0ED001240DE02A6DDBF8001021F493
:1030000080311143CBF80010DBE7386840F4003022
:1030100038607CB326462868C043C00207D42A6FB4
:10302000DAF8001021F000411143CAF800102868B6
:10303000C043800207D4AA6EDAF8001021F0807134
:103040001143CAF800102868C043400009D407485B
:10305000016821F4004101600168D5F8B4201143F2
:1030600001602868C04306E05444025810440258E6
:10307000CFFFFF001DE007D46A6DDBF8001021F0E0
:1030800040511143CBF800102868C043000208D417
:10309000D5F88820D9F8001021F440011143C9F86F
:1030A000001028790024C04300F00100204309D01B
:1030B0000EE0EA6FD9F8001021F440711143C9F80D
:1030C0000010A8E70198002102F096FF00B1064623
:1030D0002879C04300F00200204305D10198012166
:1030E00002F08AFF00B106462879C04300F00400D0
:1030F000204305D10198022102F07EFF00B106466F
:103100002879C04300F00800204305D10098002131
:1031100003F002F800B106462879C04300F0100021
:10312000204305D10098012102F0F6FF00B10646C8
:103130002879C04300F02000044304D10098022104
:1031400002F0EAFF00B916B10120BDE8FE8F0020B1
:10315000FBE700002DE9F05F04000F467ED0DFF8AA
:103160003882D8F8000000F00F00B8420CD2D8F82E
:10317000001021F00F013943C8F80010D8F8000002
:1031800000F00F00B84269D12078844D40070AD57D
:103190002069296801F07001884204D9296821F06A
:1031A00070010143296020787C4E361D00070AD546
:1031B0006069316801F07001884204D9316821F0FA
:1031C0007001014331602078C0060AD5A0693168DA
:1031D00001F4E061884204D9316821F4E0610143DF
:1031E00031602078DFF8B4B180060BF1080B0CD504
:1031F000E1695846DBF8002002F07002914204D9E0
:10320000026822F070020A430260207880070AD523
:10321000E068296801F00F01884204D9296821F08B
:103220000F01014329602078C0073ED05B49A268A6
:103230002868183920F470601043286060680228FC
:1032400018D0032819D00968012819D04907002986
:103250004ADADFF848A1AAF1080A00E044E0DAF807
:10326000002022F007020243CAF80020FFF788F985
:10327000814612E009688903E9E709688901E6E700
:10328000C905E4E7FFF77CF9A0EB090141F28830BA
:10329000814202D90320BDE8F09F6168DAF800009E
:1032A00000F03800B0EBC10FECD1207880070AD5D0
:1032B000E068296801F00F01884204D2296821F0F2
:1032C0000F0101432960D8F80010404601F00F01BA
:1032D000B9420BD9016821F00F0139430160006840
:1032E00000F00F00B84201D00120D4E72078400759
:1032F0000AD52069296801F07001884204D2296842
:1033000021F0700101432960207800070AD5606927
:10331000316801F07001884204D2316821F07001F7
:10332000014331602078C0060AD5A069316801F4F4
:10333000E061884204D2316821F4E06101433160E8
:10334000207880060CD5E1695846DBF8002002F0B1
:103350007002914204D2026822F070020A430260B5
:1033600000F088F80E492A682B68C2F3032203F0A4
:103370000F038A5CC95C02F01F0201F01F01D040FC
:10338000084A20FA01F111600749086007480068FF
:10339000BDE8F05FFFF730B9002000521844025832
:1033A00048BE000834000024300000242800002417
:1033B00070B5144C3F220260124A24680832131D73
:1033C000114D04F00704446016681C1D06F4706675
:1033D0008660166806F00F06C660126802F070027A
:1033E00002611A6802F0700242611A6802F4E06237
:1033F0008261226802F07002C261286800F00F004A
:10340000086070BD104402580020005230B500F032
:1034100031F80B4A0B490C4B15681468C5F30322AD
:1034200004F00F048A5C095D02F01F0201F01F0125
:10343000D040064A20FA01F119601060084630BDFC
:103440001844025848BE000834000024300000240C
:1034500000B5FFF7DBFF05490968054AC1F3021112
:10346000515C01F01F01C84000BD00001C4402581F
:1034700048BE0008454970B545480968434B103BB4
:1034800011F0380208D00111082A03D0102A0BD0FD
:10349000182A0BD0084670BD19688906FBD5196833
:1034A000C1F3C101C84070BD3A4870BD3749374DBE
:1034B00018310C1D24350A68096826682D6802F049
:1034C000030406F00102C1F30511C5F3CC0515FB99
:1034D00002F200EE102AB8EE400AE9B32F4ADFEDFF
:1034E0002E0AB7EE001A6CB1DFED2D1A012C01D0B7
:1034F000022C43D002EE101A1068F8EE422A81EE38
:10350000A22A1EE01C68A40611D51B6801EE901AC1
:103510001168C3F3C103F8EE612AD84001EE900AA6
:10352000C1F30800F8EE611A81EEA22A0BE001EE69
:10353000901ADFED1C2A00BFF8EE611A106882EEC7
:10354000A12AC0F3080001EE900AF8EE611A40EEDD
:10355000201A31EE810A00E015E022EE000A106820
:10356000C0F34620401C00EE900AF8EE600A80EEA0
:10357000201ABCEEC10A10EE100A70BD01EE901ABE
:10358000DFED092AD8E7002070BD00001044025882
:103590000090D00300366E0100000039304402581C
:1035A0000024744A0024744C001BB74B2DE9F05FD3
:1035B00004007DD0FF4F2078FE4D1837DFF8F483EC
:1035C000103DC00748D0D8F80000396800F0380036
:1035D000102815D0182803D101F0030002280FD0BD
:1035E0006068B0F5803F12D010B1B0F5A02F18D0B0
:1035F000286820F480302860286820F4802009E0C2
:103600002868800328D560680028D2D024E0286884
:1036100040F480302860606888B1FEF7B1FF06464C
:1036200009E0286840F480202860F0E7FEF7A8FF52
:10363000801B64287ED828688003F7D50CE0FEF74D
:103640009FFF064605E000BFFEF79AFF801B642837
:10365000F0D828688003F7D42078800756D5D8F8AA
:103660000000DFF85093396810F03800A9F10C0918
:103670000ED0182801D188070AD0E068A8B32968BD
:1036800021F0190101432960FEF77AFF064628E080
:103690002868400702D5E06800288AD0E1682868D9
:1036A00020F0190008432860FEF76AFF064606E08E
:1036B000D2E000BFFEF764FF801B0228BAD828685A
:1036C0004007F7D5217CD9F8002022F0FE4242EADB
:1036D0000161C9F8001019E0FEF752FF801B0228B3
:1036E000A8D828684007F7D5ECE7FFE7286820F05E
:1036F00001002860FEF744FF064604E0FEF740FFA5
:10370000801B022896D828684007F7D42078C00686
:1037100046D5D8F80000DFF89C92396800F03800F0
:10372000A9F10409082812D0182805D101F00300D6
:10373000012800E0CEE00AD0E0690028286820D007
:1037400040F080002860FEF71BFF064615E0286861
:10375000C00502D5E06980287ED194F82010D9F800
:10376000002022F07C5242EA0161C9F8001017E003
:10377000FEF706FF801B0228A0D82868C005F7D5F1
:10378000EBE720F080002860FEF7FAFE064604E032
:10379000FEF7F6FE801B022890D82868C005F7D4F3
:1037A0002078000729D58348616964300029814663
:1037B000016811D041F001010160FEF7E1FE06460B
:1037C00005E000BFFEF7DCFE801B022888D8D9F890
:1037D00000008007F6D510E021F001010160FEF73E
:1037E000CFFE064605E000BFFEF7CAFE801B02289A
:1037F00070D8D9F800008007F6D42078800623D549
:10380000A0690028286810D040F480502860FEF796
:10381000B7FE064605E000BFFEF7B2FE801B022899
:1038200058D828688004F7D50EE020F4805028602E
:10383000FEF7A6FE064604E0FEF7A2FE801B022865
:1038400048D828688004F7D42078400751D5DFF89D
:103850006891D9F8001000E015E141F48071C9F8D1
:103860000010FEF78DFE064605E000BFFEF788FE5D
:10387000801B64282ED8D9F80000C005F6D54D4E1F
:10388000A068603601280AD008B1052813D0306836
:1038900020F001003060306820F0040002E0306861
:1038A00040F001003060A06841F2883A98B1FEF71C
:1038B00067FE81460AE0306840F004003060EEE7C1
:1038C000FEF75EFEA0EB0901514503D83068800782
:1038D000F6D50EE072E0FEF753FE814606E000BF2B
:1038E000FEF74EFEA0EB0901514567D8306880070E
:1038F000F6D4606A00287CD0DFF8B8A0D8F80010B1
:103900000AF1200A4FF6F87B0AF10408C1F3C2015C
:103910000329AAF104096DD00228286820F08070DC
:10392000286003D0FEF72CFE044681E0FEF728FE57
:10393000064604E0FEF724FE801B022875D828689E
:103940008001F7D4E26A40F2F331386854F8283F36
:10395000884340EA021018433860217B4FF4FE0C84
:1039600022894FF0FE47208A4902267D521E401EC2
:10397000A1F5007189B2C2F308021143761E0CEA68
:1039800000400143484607EA06621143CAF80010A6
:10399000D9F8001021F00101C9F80010D8F8003062
:1039A000266A23EA0B0343EAC601C8F80010D9F8D7
:1039B000001004E0104402580048025835E0A269A3
:1039C00021F00C011143C9F800100168E26921F0EF
:1039D000020111430160016841F480310160016816
:1039E00041F400310160016841F480210160016807
:1039F00001E06CE020E041F001010160286840F046
:103A000080702860FEF7BCFD044604E0FEF7B8FDB8
:103A1000001B022809D828688001F7D557E000BFAD
:103A2000FEF7AEFD001B022802D90320BDE8F09F7F
:103A300028688001F4D44AE039680128DAF80000E7
:103A400021D0A26A01F0030393421CD1E26AC1F3C0
:103A500005118A4217D1216BC0F30802491E8A4220
:103A600011D1616BC0F34622491E91420BD1A16B6B
:103A7000C0F30642491E914205D1E16BC0F30660D6
:103A8000491E814201D00120D0E7A16C4646D8F8FA
:103A90000000C0F3CC00814219D0D9F800004D4697
:103AA00020F00100C9F80000FEF76AFD4FEA0007A8
:103AB000FEF766FDB842FBD0A26C306820EA0B002E
:103AC00040EAC2003060286840F001002860002011
:103AD000ACE700002DE9F047040029D0594A4FF027
:103AE00000092068584B594D9042C4F8289006D0E0
:103AF000984204D0A84202D0E1680F2918D8E168A2
:103B00004FF0010AE76B0831C9080AEB57167143F9
:103B1000904205D0984203D0A84201D0082907D886
:103B2000904203D0984201D0A84204D1102902D972
:103B30000120BDE8F08794F8810020B9204684F880
:103B4000809000F085F8022084F8810020680168E8
:103B500021F0010101602068A1698268B1F1806FE4
:103B600002F4F81110D16268B2F5800F01D01AB1D9
:103B70000AE0A26B22B107E0A26BB2F1805F03D131
:103B8000026842F4805202606068400209D5E06831
:103B9000072806D32068236D026822F480721A4336
:103BA00003E02068026822F480720260A66AE0697D
:103BB000E26B25683043E3680A4310431843A8606A
:103BC000D4E90D02D4E90581636A25691843D4F864
:103BD00020C00A43266810432843A56DD4E901722A
:103BE000D4E9123140EA080040EA0C0038430843A7
:103BF000104318432843F060606868B92068816802
:103C000021F4C05141F4006181602068816821F491
:103C1000C06141F4806181602068016D21F0010183
:103C200001656068400206D52068626DC16821F0B8
:103C300000411143C160C4F8849084F881A0002041
:103C400077E700000030014000380040003C0040B1
:103C5000F0B5B5B0044614212EA8FCF712FCB8212B
:103C60006846FCF70EFC2249206888423DD1811449
:103C7000002017900446CDE900106846FEF7CCFD01
:103C800008B1FDF785FB1B48016841F480410160E4
:103C9000006800F48040339016480838016841F00D
:103CA00004010160016801F004013391016841F0F1
:103CB000020101600068022530AA00F00200339082
:103CC0000620CDE92E0503260B48052782E8D00003
:103CD0002EA9FEF739FB280330AACDE92E050748A7
:103CE0002EA982E8D000FEF72FFB35B0F0BD000012
:103CF00000380040E8440258000802580004025806
:103D00002DE9FF4F0446C06B17461D4683B042099C
:103D10002068521C00F1200130301FFA82FBCDE9EF
:103D20000001FEF72DFC824694F881002E46012802
:103D300035D1049800287CD0002FFCD0002DFAD07B
:103D400094F8800001282AD04FF0010984F880906F
:103D500005224FF0000884F88120C4F8848067664B
:103D6000A4F86A50A4F868500499E165A4F8625078
:103D7000A4F86050C4F87080C4F874802068C168EA
:103D800021F4C021C160AD492068884205D0AC490A
:103D9000884202D0AB49884205D1102704E00220B6
:103DA00007B0BDE8F08F082741686FF30F01294382
:103DB00041602068016841F0010101606068B0F570
:103DC000800F04D12068016841F400710160E0684F
:103DD0000F284CD9BF0838E020684169890710D501
:103DE0007EB1F119A9420CD9E16D09680162E06D5B
:103DF000001DE065B4F86200401EA4F86200B4F84B
:103E000062602068416905B34269D20703D15D450C
:103E100010D209040ED5006B616E0860606E001D43
:103E20006066B4F86A00401EA4F86A00B4F86A50EC
:103E30000BE0F0E0FEF7A4FBA0EB0A011098814232
:103E400002D3401C01D004E018B156EA0500C3D1EA
:103E5000C8E0204602F049FAD4F8840084F8808053
:103E600040F48070C4F8840084F88190E2E0072870
:103E70007BD97F084EE020684069800711D586B164
:103E8000F019A8420DD9E06D018801980180E06D1C
:103E9000801CE065B4F86200401EA4F86200B4F82B
:103EA0006260216848692DB34969C9070AD0009842
:103EB0000088616E0880606E801C6066B4F86A00DD
:103EC000401E13E05D4516D2010414D50098008809
:103ED000616E0880606E801C6066009909880180B0
:103EE000606E801C6066B4F86A00801EA4F86A00E8
:103EF000B4F86A500EE0012D01D18004D7D4FEF74A
:103F00003FFBA0EB0A011098814202D3401C01D074
:103F100083E058B356EA0500ADD163E020684169FB
:103F2000890711D586B1F119A9420DD9E16D09783A
:103F300080F82010E06D401CE065B4F86200401E7F
:103F4000A4F86200B4F86260206841696DB142690A
:103F5000D2070CD090F83000616E0870606E401C83
:103F60006066B4F86A00401E24E038E055E05D4524
:103F700025D20A0423D590F83000616E0870606E77
:103F8000401C6066216891F830100170606E401C22
:103F90006066216891F830100170606E401C6066A8
:103FA000216891F830100170606E401C6066B4F8B2
:103FB0006A00001FA4F86A00B4F86A500FE0042DEC
:103FC00002D211F4C04FC5D1FEF7DAFAA0EB0A0114
:103FD0001098814202D3401C01D01EE0E8B156EA9D
:103FE00005009BD1109B002208212046CDF800A09F
:103FF00002F0DAF928B1D4F8840040F02000C4F8C7
:104000008400204602F071F984F88190D4F884107D
:1040100084F8808081B10120C2E6204602F065F973
:10402000D4F8842084F8808042F48072C4F884201C
:1040300084F881900320B3E60020B1E6003001400F
:1040400000380040003C0040024A136883430B43A1
:1040500013607047040400587047704770470000B1
:10406000F0B590F83C20012A41D0224E012480F87E
:104070003C40022280F83D2002681F4D5368B24246
:10408000D2F808C001D0AA4203D14F6823F47003CC
:104090003B430F6823F070031F4357600268B2422E
:1040A00019D0B2F1804F16D0144B9A4213D0144B52
:1040B0009A4210D0134B9A420DD0AA420BD0124B09
:1040C0009A4208D0114B9A4205D0114B9A4202D025
:1040D000104B9A4204D189682CF0800319439160F7
:1040E000002180F83D4080F83C100846F0BD0220D9
:1040F000F0BD000000000140000401400004004049
:1041000000080040000C0040001800400040014042
:1041100000E0004000E4004010B5040003D094F833
:104120003D0010B107E0012010BD002084F83C00E4
:10413000204600F022F8022084F83D002068211D6E
:1041400002F02EFA012084F8480084F83E0084F83A
:104150003F0084F8400084F8410084F8420084F86D
:10416000430084F8440084F8450084F8460084F84D
:10417000470084F83D00002010BD704790F83D10C6
:10418000012901D0012070471A4A022180F83D1010
:104190000168CB6843F00103CB60006890421AD0FD
:1041A000B0F1804F17D01449884214D01349884287
:1041B00011D0134988420ED0124988420BD01249BF
:1041C000884208D01149884205D01149884202D05E
:1041D0001049884207D181680F4A1140062906D04C
:1041E000B1F5803F03D0016841F00101016000207A
:1041F000704700000000014000040040000800403B
:10420000000C004000040140001800400040014044
:1042100000E0004000E400400700010070472DE985
:10422000F041044600680027C6680569A90713D550
:10423000B10711D5FA1E026101212177206880693A
:104240008007204602D0FFF7E9FF04E000F0C4F841
:10425000204600F0A5F92777680716D5700714D512
:10426000226802206FF004011161207720688069C4
:1042700010F4407F204602D0FFF7D0FF04E000F0AA
:10428000ABF8204600F08CF92777280715D53007C2
:1042900013D5226804206FF008011161207720688F
:1042A000C0698007204602D0FFF7B8FF04E000F0A5
:1042B00093F8204600F074F92777E80616D5F00643
:1042C00014D5226808206FF0100111612077206852
:1042D000C06910F4407F204602D0FFF79FFF04E042
:1042E00000F07AF8204600F05BF92777E80708D05D
:1042F000F00706D021686FF001000861204600F049
:10430000E3F9280601D4A80408D5300606D52168AB
:104310006FF4025008612046FFF79FFEE80508D5BC
:10432000300606D521686FF4807008612046FFF7DB
:1043300093FE680608D5700606D521686FF0400028
:104340000861204600F0C7F9A8060AD5B00608D5CE
:1043500021686FF0200008612046BDE8F041FFF7BA
:104360007DBEBDE8F081000030B587B00446142161
:104370006846FCF786F824680021144D0223124A8F
:104380001348AC4209D1146844F002041460126866
:10439000009302F0020205920CE00E4DAC4210D1E7
:1043A000146844F002041460126802F002020592DC
:1043B000EA130092CDE90131CDE903136946FDF717
:1043C000C3FF07B030BD0000E044025800040040C5
:1043D0000004025800180040704770B5044690F879
:1043E0003C0000260D4601280BD0012084F83C003B
:1043F0000C2A4AD007DC82B1042A20D0082A06D130
:1044000031E0022070BD102A53D0142A63D0012657
:10441000002084F83C00304670BD206802F03EF970
:104420002068816941F0080181612068816921F07B
:104430000401816120682A698169114311E02068C3
:1044400002F082F92068816941F40061816120688D
:10445000816921F48061816120682969826942EA69
:1044600001218161D4E7206802F0BCF92068C169AC
:1044700041F00801C1612068C16921F00401C161F6
:1044800020682A69C169114311E0206802F0F8F937
:104490002068C16941F40061C1612068C16921F4EB
:1044A0008061C16120682969C26942EA0121C16154
:1044B000AEE7206802F020FA2068416D41F0080163
:1044C00041652068416D21F00401416520682A6939
:1044D000416D114311E0206802F048FA2068416DF7
:1044E00041F4006141652068416D21F480614165BE
:1044F00020682969426D42EA0121416588E710B5CB
:10450000040003D094F83D0010B107E0012010BD75
:10451000002084F83C00204600F022F8022084F8B5
:104520003D002068211D02F03BF8012084F848007E
:1045300084F83E0084F83F0084F8400084F841008D
:1045400084F8420084F8430084F8440084F845006D
:1045500084F8460084F8470084F83D00002010BD30
:1045600008B50C4A01680C48914207D1016841F036
:1045700002010160006800F0020009E0074A914270
:1045800007D1016841F040010160006800F040007F
:10459000009008BD00040040E844025800180040A4
:1045A0007047000030B504464FF0020269B104299B
:1045B00012D0082917D00C291CD0102921D094F82A
:1045C0004300012824D0012030BD94F83E0001288A
:1045D000F9D184F83E201DE094F83F000128F2D183
:1045E00084F83F2016E094F840000128EBD184F8CD
:1045F00040200FE094F841000128E4D184F84120E4
:1046000008E094F842000128DDD184F8422001E05E
:1046100084F843200122206802F032F81E49206805
:104620001E4A1F4B884209D0904207D0984205D0BD
:104630001C4DA84202D01C4DA84203D1456C45F444
:10464000004545642068884218D0B0F1804F15D0ED
:104650001649884212D0164988420FD0154988421F
:104660000CD090420AD01449884207D0984205D015
:104670001249884202D01249884207D18168114A02
:104680001140062906D0B1F5803F03D0016841F002
:1046900001010160002030BD000001400004014024
:1046A0000040014000440140004801400004004037
:1046B00000080040000C00400018004000E00040EE
:1046C00000E40040070001000068B0F1804F01D114
:1046D000FDF75CBF704770472DE9F0410446414D3E
:1046E00000202074A27B288861684243D4F8FC0033
:1046F000FBF7AEFEA17B288841436068FBF7C1FE53
:10470000A07B2A8810FB00F1D4F824015143FBF769
:10471000B8FE217BA27B2B88D4F8180111FB02F193
:104720005943FBF7AEFE00202CE000BFD4F8FC108C
:1047300001EB800292ED000AB5EEC00AF1EE10FA2C
:104740001ED0237C6FF0030201EB830181ED000A90
:10475000237C616AC854D4E90515237B267CD4F8F0
:104760001871095C13FB061105EB800302EB810154
:1047700093ED000A394481ED000A217C491C217423
:10478000401CC0B2A17B8142D0D8002011E000BF04
:10479000636A10FB0105E269411CD4F824611B5CCB
:1047A000C8B202EB830106EB850291ED000A82EDAF
:1047B000000A217C8142EBD8A4F88A10CAB2A4F87E
:1047C0009810A4F89A10207BA4F88020A4F8A210D6
:1047D000A4F84810A4F88200A4F88800A4F8A00067
:1047E000BDE8F0814A010024FEE700F001B80000B6
:1047F0002DED068B4FF4FA7005F043FE2B480C218B
:10480000FFF7D0FEFBF7CEFE294C2A499FED2A8AFE
:10481000A06108780028FDD02B4D244EDFED278ABB
:104820009FED279ADFED279AB2EE04AAA06990EDDA
:10483000070A84ED050AD4ED031A78EEC00AC4ED28
:10484000041A94ED021A84ED031A30EE812A20EE48
:10485000890A70EEC12AC4ED020A72EE210A00EE46
:10486000A90A02EE8A0A10EE100A84ED010AA84293
:1048700003DD9FED160A84ED010AB5EEC00AF1EEE4
:1048800010FA01D284ED018A2078012801D184ED4B
:10489000018A94ED010A3168BCEEC00A10EE100ADC
:1048A00080B20864142005F0ECFDBFE7DC040024AE
:1048B000EC02002400000024000000000000204260
:1048C0000000C842000048420000FA430000FA43DA
:1048D00000487047F44F00240A489FED081ADFEDA6
:1048E000080AB7EE000A10B505F04CFB05489FED2D
:1048F000060A683880ED070A10BD00006F12833A7F
:10490000000000005C5000244ED1113CAFF3008049
:104910002DED028BFFF7E0FF674FDFF8A091684EA7
:10492000A7F19005B7EE008AA7F10C08A5F168047D
:104930006348FCF76DFC86ED010A85ED020AFBF782
:1049400035FEFBF72FFEF060414690ED000A84ED46
:10495000030A90ED010A84ED040A90ED020A84ED49
:10496000050AD0ED001AC7ED001A90ED012A87ED77
:10497000012AD0ED022AC7ED022A90ED030AB1EE1A
:10498000400A84ED000A90ED040A84ED010A90EDDE
:10499000050A84ED020A90ED030A81ED000AD0EDCC
:1049A000040AC1ED010A90ED051A434888ED021A88
:1049B000903805F0FFFA4048903805F01AFB3E4861
:1049C000903805F0FBFA3C48903801F037FC96ED42
:1049D000020A10EE100A484565DD012084F86400E3
:1049E00095ED1A0AB1EE400A84ED140AD5ED190AC4
:1049F000C4ED130AD5ED1B0AC4ED150A03F0C8FA7D
:104A0000D4ED040A60EE208A94ED140A03F0E4FC6D
:104A1000D4ED050A94ED061A2A4940EE808A96EDF7
:104A2000010AD4ED070A21EE201A68EE801A30EE52
:104A3000800AC1EE800AC1EE001A30EEA10A84EDB0
:104A4000060AB0EEC00A10EE100A884203DA9FEDA3
:104A50001E0A84ED060A94ED150AD4ED170A1B49C7
:104A600070EE600A10EE900A884204DDD4ED180A58
:104A700070EEC80A08E010EE900A1549884205D980
:104A8000D4ED180A70EE880AC4ED180ADFED111A89
:104A900094ED181AF0EE400A41EE210AC4ED160A10
:104AA00084ED170A03E030EE080A86ED020A0120C1
:104AB00005F0E7FC3CE70000EC50002400803B459B
:104AC000980100240AD7A33C00000000DA0F4940F7
:104AD000DA0F49C0560EC94010B54FF00004EFF38D
:104AE000058048B906F0C0FE012806D0EFF310801B
:104AF00010B9EFF3118000B10124204610BD000071
:104B0000034801680020886304210148FFF74ABD7B
:104B1000280500242DE9F047DFF8D8831E4604233A
:104B2000174608224FF000090D460446A8F8003049
:104B3000A8F8022001734773867380F810903046FE
:104B400005F08CFB31466061FBF79BFCB8F8000078
:104B5000704305F083FBA061B8F800107143FBF7C8
:104B600090FCB8F80000704305F078FBE061B8F8FD
:104B700000107143FBF785FCB8F80000684305F0AE
:104B80006DFB2062B8F800106943FBF77AFC3046F1
:104B900005F064FB31466062FBF773FCB8F8000077
:104BA000684305F05BFB2060B8F800106943FBF731
:104BB00068FCB8F80000704305F050FB6060B8F87E
:104BC00000107143FBF75DFCB8F80000784305F076
:104BD00045FBA060B8F800107943FBF752FCB8F829
:104BE0000000684305F03AFBC4F8F000B8F8001084
:104BF0006943FBF746FC217B0122D4F8F03004F135
:104C0000300003F01CFAB8F80000684305F026FBFA
:104C1000C4F8F400B8F800106943FBF732FC217BBC
:104C20000122D4F8F43004F1380003F008FA9FB1FF
:104C3000B8F80000784305F011FBC4F8F800B8F8A4
:104C400000107943FBF71DFC617B0122D4F8F8309A
:104C500004F1400003F0F3F9B8F80000704305F0E8
:104C6000FDFAC4F8FC00B8F800107143FBF709FC2A
:104C7000A17B0122D4F8FC3004F1480003F0DFF9F5
:104C8000B8F800006843684305F0E8FAC4F800018A
:104C9000B8F8001069436943FBF7F3FB217B04F18B
:104CA0005000D4F800310A4603F0C9F9B8F8000002
:104CB0006843684305F0D2FAC4F80401B8F800105C
:104CC00069436943FBF7DDFB217B04F15800D4F80D
:104CD00004310A4603F0B3F9B8F8000068436843AA
:104CE00005F0BCFAC4F808019034B8F80000684335
:104CF000684305F0B3FAE067B8F80010A06F6943A5
:104D00006943FBF7BEFBB8F80010E06F69436943E5
:104D1000FBF7B7FB14F8841CA4F13000A36F903CA0
:104D20000A4603F08CF9217B04F16800D4F80C31B9
:104D30000A4603F084F9AFB1B8F80000684378433D
:104D400005F08CFAC4F81401B8F8001069437943EF
:104D5000FBF797FB627B04F17800217BD4F81431D8
:104D600003F06DF9B8F8000047467043684305F05A
:104D700075FAC4F81801A03438886843704305F008
:104D80006DFAE0673988A06F71436943FBF779FBDF
:104D90003988E06F69437143FBF773FBA4F120008E
:104DA00014F8942C14F8921CA36FA03C03F047F95C
:104DB000A27B04F18800217BD4F81C3103F03FF979
:104DC00038886843684305F049FAC4F820013988F7
:104DD00069436943FBF755FB217B04F19000D4F84C
:104DE00020310A4603F02BF938887043704305F0F0
:104DF00035FAC4F82401398871437143FBF741FB4C
:104E0000A17B04F19800D4F824310A4603F017F985
:104E100038886843704305F021FAC4F828013988BE
:104E200069437143FBF72DFBA27B04F1A000217BBA
:104E3000D4F8283103F003F9207B398810FB00F007
:104E4000484305F00BFAC4F82C01207B398810FB8D
:104E500000F0484305F002FAC4F83001207B39889D
:104E600010FB00F0484305F0F9F9C4F83401207B49
:104E70003988484305F0F2F9C4F838013988207BB5
:104E8000484305F0EBF9C4F83C0104F1A800217B8C
:104E9000D4F82C310A4603F0D2F8217B04F1B0009B
:104EA000D4F830310A4603F0CAF8217B04F1B80087
:104EB000D4F834310A4603F0C2F8217B0122D4F839
:104EC000383104F1C00003F0BAF8217B0122D4F894
:104ED0003C3104F1C80003F0B2F884F8289084F85B
:104EE000299084F82A9084F82B9084F82C90BDE8BF
:104EF000F08700004A01002470B5104D0446C07BC5
:104F000018B12046FFF7E8FB0DE0A27B2888616816
:104F10004243D4F8FC00FBF79BFAA17B288841436D
:104F20006068FBF7AEFA627B2888A1684243D4F838
:104F3000F800BDE87040FBF78BBA00004A0100247E
:104F40002DE9F041044690F82C0000282BD1B4F84C
:104F50008220B4F85A10B4F8A000A4F8B000A4F865
:104F6000B22004F1B002A4F8B80004F1A000174682
:104F7000A4F8BA1004F1800103F0C4F904F1B802F6
:104F800084F8D00004F1580116460D46384603F067
:104F9000B9F904F15002314684F8D000284603F0F4
:104FA000EBF984F8D000BDE8F0812DE9F04104462A
:104FB00090F8290000282CD104F1680104F1600068
:104FC0000F46054603F0EEF904F1580284F8D000CC
:104FD00004F150011646284603F094F9B4F858102D
:104FE000B4F86A2084F8D0003046A4F8B0103946EE
:104FF000A4F8B22004F1B002154603F083F904F1DD
:105000009001324684F8D000284603F003F884F873
:10501000D000BDE8F0812DE9F047044690F82A0061
:1050200000285BD104F1880104F18000894605461F
:1050300003F0B8F9B4F88010B4F85A2084F8D0001E
:105040002846A4F8B01004F15801A4F8B22004F1E5
:10505000B00290460F4603F055F9B4F8B020B4F80A
:105060008A1084F8D0004046A4F8B82004F1B802B1
:105070001546A4F8BA10494603F044F9B4F898105C
:10508000B4F89A2084F8D0002846A4F8A81004F1B7
:105090009801A4F8AA2004F1A802164602F0BAFF6B
:1050A00084F8D000B2342946304602F0CDFF34F8FF
:1050B0005A1C34F8282CA077384624F8021C49469C
:1050C0002280424603F01EF9A4F11202A077B23CFE
:1050D0002946404603F016F984F8D000BDE8F08771
:1050E00070B50446FFF708FFD4F8D41009B1204684
:1050F0008847204600F068F8D4F8D81009B1204657
:1051000088472046FFF751FFD4F8DC1009B120464C
:105110008847207C2B4DC0B9E07BB0B1227B28882A
:105120004243D4E93C01FBF793F9207B2B8810FB29
:1051300000F2D4E940015A43FBF78AF9D4F8E810A9
:1051400009B12046884700202AE02046FFF763FF88
:10515000D4F8E01009B120468847204600F06EF8E8
:10516000D4F8E41009B1204688472046FFF7E8FE4E
:10517000E4E700BF10FB0101D4F80031226A03EB21
:10518000810102EB8002D1ED000A92ED000AF4EEFB
:10519000C00AF1EE10FA01D281ED000A401CC0B243
:1051A000217B8142E6D82888CAB2D4F8F010424365
:1051B0002068FBF74DF9D4F8EC1009B12046884778
:1051C000206870BD4A0100242DE9F041044690F8A2
:1051D000280000282AD1627B04F1300104F160002C
:1051E00004F1380522B3227B0126A4F8C02004F183
:1051F000C0021746A4F8C26003F084F8217B04F1D2
:10520000C80284F8D00004F17800A4F8C81004F1B2
:105210004001A4F8CA60164603F074F804F8D00FF1
:105220002A463146384602F0F5FE2070BDE8F0818E
:105230002A4603F067F884F8D000F7E72DE9F0413B
:10524000044690F82B00002838D1B4F8800004F10F
:10525000C00204F13801A4F8C0000125904604F111
:1052600080000F46A4F8C25003F04CF8B4F8481080
:1052700004F1C80284F8D00004F14800A4F8C81072
:1052800016464146A4F8CA5003F076F8B4F8A010C8
:10529000424684F8D00004F1A000A4F8C0103146C2
:1052A000A4F8C25003F02EF804F13002414684F80D
:1052B000D000384602F0AEFE84F8D000BDE8F081A0
:1052C000D0ED000A90ED012A90ED021A60EE800AFE
:1052D00022EE002AD0ED031A60EE800A60EE800A0A
:1052E00042EE000A41EE000A30EEA10A70470000CB
:1052F000094B0021094AF0EE402A00B5B0EE620ADF
:1053000003EB0110FFF7DCFF02EB8100491C0C29C5
:1053100080ED000AF2DB00BD200200243852002498
:1053200070B50B4D00240B4E2DED028BB0EE408A74
:1053300005EB0410B0EE480AFFF7C2FF06EB84004D
:10534000641C0C2C80ED000AF2DBBDEC028B70BDFE
:105350002002002454550024FBF792BD1848002178
:105360002DE9F041154F01268160052407600423D3
:10537000C16013250174082241748174C0E90536A7
:10538000C0E90754C562C0E90C418463C0E909362D
:10539000C0E91121C0E90F43C0E91321C0E915316B
:1053A000C0E91712C0E91912FCF7A8FD002803D0C4
:1053B000BDE8F041FBF7ECBFBDE8F08100A0004084
:1053C000140300241A48002170B5184E00F1140C83
:1053D0008160052206600124C1600E25017440F23F
:1053E00056364174042381748CE834000262243000
:1053F00080E83400C0E90326036208244261C0E962
:105400000621C0E909340622C0E90B134163C0E953
:105410000E13C0E910122438FCF770FD002803D0E9
:10542000BDE87040FBF7B4BF70BD000000A40040B1
:10543000B4030024054A0021054810B505F0ABF877
:1054400004498861BDE81040FCF75CB9F0BC000875
:10545000EF630008040000242DE9F04786B0142112
:105460006846FBF70EF84248016841F0040101600C
:10547000016801F004010591016841F080010160BB
:10548000016801F080010591016841F001010160AE
:10549000016801F001010591016841F0020101601C
:1054A000016801F002010591016841F010010160FD
:1054B000016801F010010591016841F008010160E7
:1054C00000684FF46046DFF8AC80002200F008006E
:1054D000314605904046FDF74EF80122404609212D
:1054E000FDF749F8DFF89090012205214846FDF7C5
:1054F00042F80122DFF884A0570250463946FDF7F2
:105500003AF800240096012569464046CDE9015449
:105510000394FCF719FF03210920CDE90005CDE92B
:10552000024169464046FCF70FFF05200090CDE997
:105530000154694648460394FCF706FF0097694604
:10554000CDE9015450460394FCF7FEFE680369461A
:105550008DE831005046FCF7F7FE0021E806FEF723
:1055600073FD00212806FEF76FFD06B0BDE8F08749
:10557000E044025800080258000002580010025887
:105580002DE9F04117484FF48007DFF854C000219F
:10559000FA000726C0F800C04FF04053C0E903628C
:1055A000C0E90171C0E907314162551054008162C0
:1055B0005201C162C0E90D21C1630164416481648B
:1055C000C164016541658165C0E90554FEF782FA51
:1055D000002803D0BDE8F041FBF7DABEBDE8F0815A
:1055E000003800405404002430B58BB000246846D5
:1055F0001C21079408940994FAF743FF174840F2D6
:10560000CF721723144D8021C0E9024204618161E9
:10561000C0E90053FEF773FF08B1FBF7B9FE0F486E
:1056200007A907940994FEF71BFD08B1FBF7B0FE2C
:1056300060204FF47A718DE813000848042269460F
:105640000494FEF7CAFE08B1FBF7A2FE0348FEF77A
:105650008BFE0BB030BD0000001800402805002470
:1056600030B58BB0002468461C2107940894099437
:10567000FAF707FF164842F20F721723134D8021E5
:10568000C0E9024204618161C0E90053FEF737FFBF
:1056900008B1FBF77DFE0E4807A907940994FEF7B1
:1056A000DFFC08B1FBF774FE60206946CDE9000419
:1056B00007480C2202940494FEF78FFE08B1FBF712
:1056C00067FE0348FEF750FE0BB030BD00040040FB
:1056D000DC040024FEE7FEE7AFF300802DED048B31
:1056E000FFF7F6F8454C206103E0012004F0C9FE05
:1056F000206990F864000028F7D0414806F0A6FA27
:10570000DFF8F8803F4F404D08F11C08404EDFEDB8
:105710003F8AB6EE009ADFED3F9A2069D7ED410A45
:1057200095ED060A90ED001A70EE810A30EE800ABF
:1057300084ED050A95ED0F0A02F02AFC95ED111A89
:10574000D5ED101AD4ED050A21EE211A20EE018ABA
:1057500095ED0F0A00EEA88A02F03EFED5ED120A82
:1057600000EE808A84ED068A2069D7ED500A96ED16
:10577000061A90ED000A30EE600A30EE010A84ED60
:10578000010A96ED0F0A02F003FC96ED111AD6ED10
:10579000101AD4ED010A21EE211A20EE018A96EDAD
:1057A0000F0A00EEA88A02F017FED6ED120A00EEEC
:1057B000808A84ED028A94ED060A30EE080A60EED3
:1057C000090AC4ED030A206990ED060A0C4806F0A8
:1057D00071FA98ED000A87ED5D0A206897ED5E1A70
:1057E00000EE900AF8EE601AC1EEA90A00EE201A47
:1057F00087ED5E1A04F045FE8FE70000A801002443
:10580000F8500024685200248455002422FD763D7F
:105810001C54002400007A44002828D0002A26D0F6
:105820000170D2ED001A9FED121AC0ED011AD2EDEF
:10583000011AC0ED021AD2ED021AC0ED031A80ED72
:10584000040AC0ED050A80ED0E1A80ED0D1A80EDF8
:105850000C1A80ED081A80ED0B1A80ED0A1A80ED03
:10586000091A80ED111A80ED101A80ED0F1A704799
:105870000000000010B5094C012204212046FCF76D
:105880007AFE012220461146FCF775FE01220448EB
:10589000BDE810405102FCF76EBE00000000025847
:1058A00000100258FEB5002400F01AF900F018F9B3
:1058B00000F016F91BA007C88DE80700092168460B
:1058C00000F004F91AA107C98DE80700092168460C
:1058D00000F0FCF819A207CA8DE807000921684604
:1058E00000F0F4F818A207CA8DE8070009216846FD
:1058F00000F0ECF81420FBF7BBFF164E5FF000053C
:1059000000F048F910B1707800280AD10A20FBF79E
:10591000AFFF6D1CEDB2032DF2D3641CE4B2052C75
:10592000C2D3FEBD014300010000000000000000E2
:10593000014400010300000000000000014D0000D0
:105940000100000000000000014300005A5A5A5AAA
:105950005A000000040100242DE9F04116460D46CE
:105960008046FFF787FF3220FBF744FC04F0C0FDC0
:10597000174F002204213846FCF7FDFD3220FBF7CB
:1059800039FC00240BE000BF18F8040000F0BAF85E
:1059900005B128550A20FBF72DFC641CE4B2B44283
:1059A000F2D3012238460421FCF7E5FD3220FBF753
:1059B00021FC012207485102FCF7DDFD0122384697
:1059C0001146FCF7D8FDBDE8F04104F0C7BD00006A
:1059D00000000258001002580B490C480A78C272A5
:1059E0004A7802734A88C2810A8902824A894282BD
:1059F0008A898282C989C1828169C162C169016360
:105A0000016A416370470000EA4E0024040100244B
:105A100070B5164C0025E57125726572FEF758FFCA
:105A20001449DFED130AA063C1ED560A91ED5E1A29
:105A30009FED110A81ED571A91ED661A81ED581A02
:105A400081ED5A0A81ED5B0A81ED5C0AC1ED590ACC
:105A5000FFF710FF00F012F8A561E5612562322022
:105A6000FBF706FFBDE87040FFF71CBF04010024F0
:105A700000000000685200240AD7A33D114800210D
:105A800070B580234FF6FF72FF2401704170428091
:105A9000037143718371C3710B4A01817325418185
:105AA0005A268181C181147055709670A2F13C0014
:105AB000D470147153719371D3711372017041706A
:105AC000817070BDEA4E0024400100240A46002186
:105AD00010B5FFF741FFBDE810400220FBF7C8BE3C
